:0A0EDA0000010202030304040505F1
:10050E00E4F513F512F511F510C203C200C202C2D2
:10051E000112097B7E0B7F008E238F24752B0B75AA
:10052E002C1275210B75221C75290B752A4A752DF7
:10053E000B752E7890E680E030E70E85212585221A
:10054E0026852927852A28800C852925852A268512
:10055E002127852228EE54E07003020681751400CF
:10056E007515807E0B7F008E168F17C374A29FFFAA
:10057E00740B9ECF2402CF3400FEE48F0F8E0EF547
:10058E000DF50CF50BF50AF509F508AF0FAE0EAD2E
:10059E000DAC0CAB0BAA0AA909A808C3120E095080
:1005AE002AE515250BF582E514350AF58374CDF091
:1005BE00E4FAF9F8E50B2401F50BEA350AF50AE938
:1005CE003509F509E83508F50880C0E4F50BF50A9C
:1005DE00F509F508AF0FAE0EAD0DAC0CAB0BAA0ABC
:1005EE00A909A808C3120E095037E517250BF58285
:1005FE00E516350AF583E0FFE515250BF582E514C2
:10060E00350AF583EFF0E4FAF9F8E50B2401F50B62
:10061E00EA350AF50AE93509F509E83508F50880DD
:10062E00B385142385152474002480FF740B34FFC6
:10063E00FEC3E52C9FF52CE52B9EF52BC3E5269FDF
:10064E00F526E5259EF525C3E5289FF528E5279E89
:10065E00F527C3E5229FF522E5219EF521C3E52A64
:10066E009FF52AE5299EF529C3E52E9FF52EE52D4A
:10067E009EF52DD2E843D82090E668E04409F0902C
:10068E00E65CE0443DF0D2AF90E680E020E105D29A
:10069E0007120D6D90E680E054F7F0538EF8C2030A
:1006AE00300105120080C2013003291209FE5024C8
:1006BE00C203120E1A20001690E682E030E704E024
:1006CE0020E1EF90E682E030E604E020E0E4120D57
:0906DE009C120EF51206E880C71B
:0106E70022F0
:1000800090E6B9E0700302015C14700302020524DB
:10009000FE700302029A24FB7003020156147003DF
:1000A00002015014700302014414700302014A2437
:1000B000056003020306120EF7400302031290E6E6
:1000C000BBE024FE602C14604724FD6016146031F0
:1000D00024067066E52390E6B3F0E52490E6B4F0DC
:1000E000020312E52B90E6B3F0E52C90E6B4F002A3
:1000F0000312E52590E6B3F0E52690E6B4F002039E
:1001000012E52790E6B3F0E52890E6B4F00203127A
:1001100090E6BAE0FF120DC8AA06A9077B01EA49DA
:100120004B600DEE90E6B3F0EF90E6B4F0020312F0
:1001300090E6A0E04401F002031290E6A0E0440142
:10014000F0020312120EAD020312120EE4020312A9
:10015000120CBD020312120E9B020312120EF94082
:100160000302031290E6B8E0247F602B14603C2465
:100170000260030201FBA200E433FF25E0FFA202BC
:10018000E4334F90E740F0E4A3F090E68AF090E685
:100190008B7402F0020312E490E740F0A3F090E6C3
:1001A0008AF090E68B7402F002031290E6BCE054F1
:1001B0007EFF7E00E0D3948040067C007D018004B9
:1001C0007C007D00EC4EFEED4F24DAF582740E3E8D
:1001D000F583E493FF3395E0FEEF24A1FFEE34E6D0
:1001E0008F82F583E0540190E740F0E4A3F090E6BD
:1001F0008AF090E68B7402F002031290E6A0E044CD
:1002000001F0020312120EFB400302031290E6B843
:10021000E024FE601D2402600302031290E6BAE0AF
:10022000B40105C20002031290E6A0E04401F0020E
:10023000031290E6BAE0705990E6BCE0547EFF7E6F
:1002400000E0D3948040067C007D0180047C007D2A
:1002500000EC4EFEED4F24DAF582740E3EF583E499
:1002600093FF3395E0FEEF24A1FFEE34E68F82F595
:1002700083E054FEF090E6BCE05480FF1313135467
:100280001FFFE0540F2F90E683F0E04420F00203BC
:100290001290E6A0E04401F08078120EFD507390B9
:1002A000E6B8E024FE60202402706790E6BAE0B46D
:1002B0000104D200805C90E6BAE06402605490E6EB
:1002C000A0E04401F0804B90E6BCE0547EFF7E004D
:1002D000E0D3948040067C007D0180047C007D009A
:1002E000EC4EFEED4F24DAF582740E3EF583E49376
:1002F000FF3395E0FEEF24A1FFEE34E68F82F58315
:10030000E04401F0800C12031A500790E6A0E0448C
:0903100001F090E6A0E04480F049
:0103190022C1
:03003300020EF1C9
:040EF10053D8EF32B1
:100B00001201000200000040B4041386000001023C
:100B100000010A06000200000040010009022E0048
:100B200001010080320904000004FF0000000705F5
:100B3000010200020007058102000200070502020F
:100B40000002000705860200020009022E000101D2
:100B50000080320904000004FF00000007050102C4
:100B60004000000705810240000007050202400026
:100B70000007058602400000040309041003430037
:100B80007900700072006500730073001603450061
:100B90005A002D0055005300420020004600580026
:040BA000320000001F
:1007E8004210B000004110AF00C104C1064210AB76
:1007F8000000C105021B00004110AD004110AE0011
:0B0ECF00E5BB30E7FB90E6F1EFF022FE
:100EBF00E5BB30E7FB90E6F0EFF090E6F1EDF022C6
:10097B0090E600E054E74410F000000090E610749D
:10098B00A0F090E611F000000090E612F0000000DD
:10099B00E490E613F000000090E61474E0F0000021
:1009AB0000E490E615F000000090E6047480F0007F
:1009BB0000007402F00000007406F0000000E4F088
:1009CB0000000090E61804F00000007411F0000025
:1009DB000090E61A7409F0000000E490E68DF01226
:1009EB0008BF90E6707401F043B21C43B403D2A865
:0309FB00D288227D
:1006E800E5BB30E73FE5AB20E13A75800490E6F4DE
:1006F800E070047F0180027F00EF20E0F00000003E
:1007080090E6ABE090E6D0F000000090E6ACE09018
:10071800E6D1F0000000E4F5BB000000E5BB30E7DF
:10072800FB0000003004759010ABE07002A3E0609D
:100738006BE5BB30E766E5AC20E06175800490E6C8
:10074800F4E070047F0180027F00EF20E0F00000F9
:10075800009010ABE0FCA3E0FDEC90E6D0F00000C8
:1007680000ED90E6D1F000000075BB06000000E542
:10077800BB30E7FB00000090E6AFE0FE90E6B0E09B
:100788007C002400F51CEC3EF51BC3940250069037
:10079800E6487406F0E49010ABF0A3F0300609C206
:1007A80006D2A87F02120C309010B0E475F0011246
:1007B8000DF3AFF0FEBE2727BF10249010AFE06006
:1007C8000C7F01120AB8E49010AFF0800B7F011281
:1007D8000C309010AF7401F0E49010B0F0A3F02248
:0209FE00D32202
:020EF500D32206
:020EF700D32204
:100CBD0090E680E030E71800000090E6247402F022
:100CCD00000000E490E625F0000000D2058016003B
:100CDD000000E490E624F000000090E6257440F05A
:0D0CED00000000C20590E6BAE0F51DD3221C
:100E9B0090E740E51DF0E490E68AF090E68B04F0D5
:020EAB00D32250
:080EE40090E6BAE0F51AD322F2
:100EAD0090E740E51AF0E490E68AF090E68B04F0C6
:020EBD00D3223E
:020EF900D32202
:020EFB00D32200
:020EFD00D322FE
:10031A0090E6B9E0244EB40A00400302050A9003AD
:10032A003675F003A4C58325F0C58373020354020E
:10033A00037302038F0203AB0203CD020413020408
:10034A00590204870204A50204CF7F02120AB89058
:10035A00E74074B2F0E490E68AF090E68B04F090FD
:10036A00E6A0E04480F002050CD20490E74074B3A2
:10037A00F0E490E68AF090E68B04F090E6A0E04480
:10038A0080F002050CC20490E74074B4F0E490E6F1
:10039A008AF090E68B04F090E6A0E04480F0020533
:1003AA000CE490E68BF0E5BA20E0FB90E740E0FE33
:1003BA00A3E07C002400FFEC3E9010ABF0A3EFF02A
:1003CA0002050CE490E68BF0E5BA20E0FB90E6F437
:1003DA00E070047F0180027F00EF20E0F0E4F58006
:1003EA0090E6C0741EF090E741E0FF90E740E0FD20
:1003FA00120EBF90E6C0744EF090E743E0FF90E71C
:10040A0042E0FD120EBF02050CE490E68BF0E5BA5D
:10041A0020E0FB90E6F4E070047F0180027F00EFA9
:10042A0020E0F075800890E6C0741EF090E741E085
:10043A00FF90E740E0FD120EBF90E6C0744EF090C8
:10044A00E743E0FF90E742E0FD120EBF02050C9081
:10045A00E6047480F00000007406F0000000E4F086
:10046A0000000090E74074B8F0E490E68AF090E665
:10047A008B04F090E6A0E04480F002050C90E7407F
:10048A0074B9F0A3E5BBF0E490E68AF090E68B74C9
:10049A0002F090E6A0E04480F0806790E74074BAEA
:1004AA00F090E6D0E090E741F090E6D1E090E742A4
:1004BA00F0E490E68AF090E68B7403F090E6A0E010
:1004CA004480F0803DE490E68BF090E6F4E070041E
:1004DA007F0180027F00EF20E0F0E490E6C3F07530
:1004EA00801090E6C27402F090E6C0741EF090E7A5
:1004FA0041E0FF90E740E0FD120EBFE4F580800284
:04050A00D322C32213
:100E3F00C0E0C083C082D2015391EF90E65D740190
:080E4F00F0D082D083D0E03224
:100E6F00C0E0C083C0825391EF90E65D7404F0D070
:060E7F0082D083D0E032B6
:100E8500C0E0C083C0825391EF90E65D7402F0D05C
:060E950082D083D0E032A0
:100D3700C0E0C083C082852925852A26852682852D
:100D47002583A37402F0852127852228852882859B
:100D57002783A37407F05391EF90E65D7410F0D0EA
:060D670082D083D0E032CF
:100E5700C0E0C083C082D2035391EF90E65D74086F
:080E6700F0D082D083D0E0320C
:100CFA00C0E0C083C08290E680E030E720852125ED
:100D0A00852226852682852583A37402F0852927D4
:100D1A00852A28852882852783A37407F05391EFB3
:0D0D2A0090E65D7420F0D082D083D0E032DE
:010AFF0032C4
:010EFF0032C0
:010F000032BE
:010F010032BD
:010F020032BC
:010F030032BB
:010F040032BA
:010F050032B9
:010F060032B8
:010F070032B7
:010F080032B6
:010F090032B5
:010F0A0032B4
:010F0B0032B3
:010F0C0032B2
:010F0D0032B1
:010F0E0032B0
:010F0F0032AF
:010F100032AE
:010F110032AD
:010F120032AC
:010F130032AB
:010F140032AA
:010F150032A9
:010F160032A8
:010F170032A7
:010F180032A6
:010F190032A5
:010F1A0032A4
:010F1B0032A3
:010F1C0032A2
:010F1D0032A1
:010F1E0032A0
:010F1F00329F
:010F2000329E
:010F2100329D
:100AB800AD07ED30E00D908100E09010ADF0A3E0BF
:100AC80054FEF0ED30E10D909100E09010ADF0A3F0
:100AD800E054FDF0ED30E20D90A100E09010ADF093
:100AE800A3E054FBF0ED30E30D90B100E09010ADC1
:070AF800F0A3E054F7F02227
:100C3000AD07ED30E00D908000E09010ADF0A3E046
:100C40004401F0ED30E10D909000E09010ADF0A384
:100C5000E04402F0ED30E20D90A000E09010ADF025
:100C6000A3E04404F0ED30E30D90B000E09010AD4F
:070C7000F0A3E04408F022AC
:03000300020EECFE
:050EEC00D206C2A8328D
:10080800608010000404043F010101070002020196
:1008180000000000000002020202020700000000BF
:100828000000003F0404043701010107000202012F
:100838000000000004040606060606070000000083
:100848000000003F0105010405013807000202000D
:10085800020201000200020604060607000000006A
:1008680000002D3F010101010138010700000200CD
:100878000201000003010705070707070000000041
:10088800002D003F602410870000000000000000D9
:100898000000000000000000000000000000000050
:1008A800000000000000000000000000471080E089
:0608B800000007EEE40061
:1008BF0090E60174EEF090E6F574FFF0901080E092
:1008CF0090E6F3F0901081E090E6C3F0901082E094
:1008DF0090E6C1F0901083E090E6C2F0901085E0B2
:1008EF0090E6C0F0901086E090E6F4F075AF0774D4
:1008FF0010F59A7400F59B759DE4E4F59EFF90E664
:10090F007BE090E67CF00FBF80F490E67174FFF00F
:10091F00F5B490E672E04480F043B680000000E446
:10092F0090E6C4F000000090E6C5F0901087E090CC
:10093F00E6C6F0901088E090E6C7F0901089E0903E
:10094F00E6C8F090108AE090E6C9F090108BE09026
:10095F00E6CAF090108CE090E6CBF090108DE0900E
:0B096F00E6CCF090108EE090E6CDF09A
:01097A00225A
:100D9C0090E682E030E004E020E60B90E682E03062
:100DAC00E119E030E71590E680E04401F07F147E15
:0C0DBC0000120C7790E680E054FEF0225C
:100D6D0030070990E680E0440AF0800790E680E0C5
:100D7D004408F07FDC7E05120C7790E65D74FFF081
:0F0D8D0090E65FF05391EF90E680E054F7F0228C
:020DC800A90779
:100DCA00AE2DAF2E8F828E83A3E064037017AD0120
:100DDA0019ED7001228F828E83E07C002FFDEC3E9C
:080DEA00FEAF0580DFE4FEFF0F
:010DF20022DE
:100E1A0090E682E044C0F090E681F043870100004A
:040E2A0000000022A2
:100C77008E188F1990E600E054187012E5192401B8
:100C8700FFE43518C313F518EF13F519801590E62F
:100C970000E05418FFBF100BE51925E0F519E5181A
:100CA70033F518E5191519AE18700215184E6005B9
:060CB700120E2E80EE2259
:100E2E007400F58690FDA57C05A3E582458370F9D7
:010E3E002291
:03004300020A00AE
:03005300020A009E
:100A0000020E3F00020E8500020E6F00020E57001C
:100A1000020D3700020CFA00020AFF00020EFF006E
:100A2000020F0000020F0100020F0200020F03007C
:100A3000020F0400020F0500020F0600020F07005C
:100A4000020F0800020EFF00020F0900020F0A0049
:100A5000020F0B00020F0C00020F0D00020F0E0020
:100A6000020F0F00020EFF00020EFF00020EFF0039
:100A7000020F1000020F1100020F1200020F1300EC
:100A8000020F1400020F1500020F1600020F1700CC
:100A9000020F1800020F1900020F1A00020F1B00AC
:100AA000020F1C00020F1D00020F1E00020F1F008C
:080AB000020F2000020F2100DB
:03000000020BA44C
:0C0BA400787FE4F6D8FD75812E020BEB83
:100DF300C5F0F8A3E028F0C5F0F8E582158270028B
:060E03001583E038F02227
:100E0900EB9FF5F0EA9E42F0E99D42F0E89C45F03F
:010E190022B6
:100BB00002050EE493A3F8E493A34003F68001F248
:100BC00008DFF48029E493A3F85407240CC8C33346
:100BD000C4540F4420C8834004F456800146F6DF15
:100BE000E4800B01020408102040809007E8E47EB6
:100BF000019360BCA3FF543F30E509541FFEE4930A
:100C0000A360010ECF54C025E060A840B8E493A3D0
:100C1000FAE493A3F8E493A3C8C582C8CAC583CAFB
:100C2000F0A3C8C582C8CAC583CADFE9DEE780BEB3
:0108BE000039
:00000001FF
